:100000000C942A000C9434000C9434000C943400AA
:100010000C9434000C9434000C9434000C94340090
:100020000C9434000C9434000C9434000C94340080
:100030000C9434000C9434000C9434000C94340070
:100040000C9434000C9434000C9434000C94340060
:100050000C94340011241FBECFE5D4E0DEBFCDBF29
:100060000E9448000C9458000C940000A898A99A8B
:10007000AA98AB9A0895A998A89AAA98AB9A0895B5
:10008000A898A99AAB98AA9A08958FE084BB08957E
:100090008FE084BB1ABA8FEF8BBB89B389B389B366
:1000A00090E083709070892BC1F70E944000F5CFDB
:0400B000F894FFCFF2
:00000001FF
